:100000000C9462000C948A000C948A000C946A048C
:100010000C946A040C946A040C948A000C948A0070
:100020000C948A000C948A000C948A000C948A0028
:100030000C948A000C948A000C948A000C948A0018
:100040000C94E4040C948A000C94DC070C940E08C5
:100050000C948A000C948A000C948A000C948A00F8
:100060000C948A000C948A00000000080002010031
:100070000003040700000000000000000102040863
:100080001020408001020408102001020408102002
:10009000040404040404040402020202020203032E
:1000A00003030303000000002300260029000000D2
:1000B0000000250028002B0000000000240027007D
:1000C0002A003E0811241FBECFEFD8E0DEBFCDBF0F
:1000D00011E0A0E0B1E0E2E5F4E102C005900D928C
:1000E000A631B107D9F722E0A6E1B1E001C01D9227
:1000F000AC31B207E1F710E0C4ECD0E004C02297C5
:10010000FE010E94230AC23CD107C9F70E94AA0837
:100110000C94270A0C940000CF92DF92EF92FF928A
:100120000F931F93E82FF92F05C0015011092109E2
:10013000310961F1908196239417B9F305C00150FC
:1001400011092109310911F1908196239413F7CFF8
:10015000C12CD12CE12CF12C0AC08FEFC81AD80A7F
:10016000E80AF80A0C151D052E053F0579F0808177
:100170008623841791F36C2D7D2D8E2D9F2D1F913D
:100180000F91FF90EF90DF90CF90089560E070E0C6
:1001900080E090E01F910F91FF90EF90DF90CF9063
:1001A0000895FC01009769F08FEF828383831182A9
:1001B000108240E855E260E070E044835583668336
:1001C00077830895CF93DF93EC010097B1F0888196
:1001D0009981DC01ED91FC910480F581E02D099578
:1001E00018161906A4F388819981DC01ED91FC9120
:1001F0000680F781E02D099501C080E0DF91CF9165
:100200000895CF93DF93EC010E947703CE01089607
:100210000E943104CE010A960E94D100CE0142967E
:100220000E94260381E090E09B8F8A8FDF91CF911F
:100230000895CF93DF93EC0108960E94590420E0C3
:1002400030E04CE052E40E94B90818164CF061E02E
:100250008DE00E943506CE01DF91CF910C94D6033C
:1002600060E08DE00E943506CE01DF91CF910C94C5
:10027000B503CF93DF93EC010A960E94E2009A89BE
:10028000891305C0CE01DF91CF910C94B5039B89F2
:10029000891305C0CE01DF91CF910C94C0039C89D6
:1002A000891305C0CE01DF91CF910C94CB039D89BA
:1002B000891305C0CE01DF91CF910C94D6039E899E
:1002C000891306C065E0CE01DF91CF910C948A03BB
:1002D0009F89891306C065E0CE01DF91CF910C9410
:1002E0009A03988D89130CC081E090E02A8D3B8D94
:1002F0002130310511F480E090E09B8F8A8F08C097
:10030000998D891305C0CE01DF91CF910C94AA037A
:10031000DF91CF910895FC01228D338D232B11F4B1
:100320000C9419010C94390186E191E00C948B0135
:100330001F93CF93DF9300D01F92CDB7DEB7182F56
:10034000CE0101966B830E94E10319836B816A835E
:1003500089819A810F900F900F90DF91CF911F911B
:1003600008951F93CF93DF9300D01F92CDB7DEB7D0
:10037000182FCE0101966B830E943A0319836B817B
:100380006A8389819A810F900F900F90DF91CF91AE
:100390001F910895CF93DF93CDB7DEB760970FB667
:1003A000F894DEBF0FBECDBFCE0109960E94770341
:1003B00063E082E00E94B1019A87898765E084E06A
:1003C0000E94B1019C878B876FEF81E00E949801AA
:1003D0009E878D876FEF82E00E949801988B8F87B0
:1003E00088E0FE013996DE01119601900D928A9502
:1003F000E1F729813A814B815C816D817E818F811A
:10040000988560960FB6F894DEBF0FBECDBFDF9122
:10041000CF9108951F93CF93DF9300D01F92CDB754
:10042000DEB7182FCE0101966B830E943104198329
:100430006B816A8389819A810F900F900F90DF9171
:10044000CF911F9108951F93CF93DF93CDB7DEB760
:1004500065970FB6F894DEBF0FBECDBF182FCE0143
:1004600009962A8B3B8B4C8B5D8B698B0E94D1004C
:100470001B8769896C872A893B894C895D892D870F
:100480003E874F87588B88E0FE013996DE01119632
:1004900001900D928A95E1F729813A814B815C8127
:1004A0006D817E818F81988565960FB6F894DEBF49
:1004B0000FBECDBFDF91CF911F910895AF92CF9224
:1004C000EF920F931F93CF93DF93CDB7DEB7639770
:1004D0000FB6F894DEBF0FBECDBF182FCE01099620
:1004E0002B8B4A8B698B0E942603198769896A873F
:1004F0004A894B872B892C870D87EE86CF86A88A61
:1005000088E0FE013996DE01119601900D928A95E0
:10051000E1F729813A814B815C816D817E818F81F8
:10052000988563960FB6F894DEBF0FBECDBFDF91FE
:10053000CF911F910F91EF90CF90AF900895AF9210
:10054000CF92EF920F93CF93DF93EC010E940101C2
:100550000E94CA01288339834A835B836C837D832D
:100560008E839F8369E088E00E940A0299878887CA
:1005700020E835E240E050E066E087E00E94230298
:100580002A873B874C875D876E877F87888B998B0F
:1005900082E6A82E91E6C92E2DE2E22E0BE222E79A
:1005A0004CE664E685E70E945E022A8B3B8B4C8B0F
:1005B0005D8B6E8B7F8B888F998F81E090E09B8F16
:1005C0008A8FCE01DF91CF910F91EF90CF90AF90B6
:1005D0000895CF93DF93CDB7DEB76C970FB6F8943D
:1005E000DEBF0FBECDBF26E040E855E260E070E020
:1005F0008FE791E00E947A07CE0101960E949F0248
:100600008CE1FE013196A6E1B1E001900D928A9550
:10061000E1F76C960FB6F894DEBF0FBECDBFDF9149
:10062000CF91089524E6829FC00111246FEF70E0FE
:100630000E94D709862F08952FEF829FC0011124B1
:1006400064E670E00E94D709862F0895FC010097A8
:1006500081F085E7808384E681838CE6828382E76C
:1006600083838BE284838DE2858381E6868382E6C1
:1006700087830895009721F02FEFFC0120832183C9
:100680000895CF93DF93EC01009751F060E08881EB
:100690000E94350660E08981DF91CF910C94350688
:1006A000DF91CF910895CF93DF93EC01009751F044
:1006B00061E088810E94350660E08981DF91CF91F9
:1006C0000C943506DF91CF910895CF93DF93EC0121
:1006D000009751F060E088810E94350661E08981D1
:1006E000DF91CF910C943506DF91CF910895CF9390
:1006F000DF93EC010E943A03CE0102960E943A0376
:10070000CE0104960E94E103CE010696DF91CF91BF
:100710000C94E1031F93CF93DF93EC01162F049603
:100720000E940204612FCE010696DF91CF911F91A6
:100730000C9402041F93CF93DF93EC01162F0496C1
:100740000E941904612FCE010696DF91CF911F916F
:100750000C941904CF93DF93EC010E944103CE0166
:100760000296DF91CF910C944103CF93DF93EC017C
:100770000E945303CE010296DF91CF910C94530354
:10078000CF93DF93EC010E946503CE010296DF91C7
:10079000CF910C946503CF93DF93EC010E94650326
:1007A000CE010296DF91CF910C945303CF93DF9348
:1007B000EC010E945303CE010296DF91CF910C947D
:1007C0006503009721F02FEFFC012083218308951A
:1007D000009731F0FC01618370E080810C94740516
:1007E0000895CF93DF93EC01862F653640F40E9485
:1007F0001C03682FCE01DF91CF910C94E803DF91A9
:10080000CF9108950F931F93CF93DF931F92CDB78E
:10081000DEB78C01FC01818169830E94120369812A
:10082000680FC8010F90DF91CF911F910F910C9429
:10083000F1030F931F93CF93DF931F92CDB7DEB7D2
:100840008C01FC01818169830E9412036981861BEE
:10085000682FC8010F90DF91CF911F910F910C94D9
:10086000F103009721F02FEFFC01218320830895ED
:10087000CF93DF93EC010097B1F061E088810E9493
:1008800035068AE090E00E942E0560E088810E9493
:10089000350620E432E44FE050E061E08981DF91E9
:1008A000CF910C946B0660E070E0CB01DF91CF91AB
:1008B0000895009759F00E9438040E94250920E00D
:1008C00030E048E652E40E94BD08089560E070E020
:1008D000CB0108951F920F920FB60F9211242F9300
:1008E0003F934F935F936F937F938F939F93AF93B8
:1008F000BF93EF93FF93E0917401F09175013097EE
:1009000009F451C0868DA685B785958581FF04C001
:100910008C91892329F447C08C91892309F043C025
:10092000A389B4899C918589809589238C93868934
:1009300097890197F1F7208D318DA685B78575854B
:1009400058E040E0C9010197F1F7842F90E09595B8
:100950008795482F6C91672309F04068515091F7B3
:10096000868D81FD40958091330190E001968F73D3
:10097000992720913201281749F0A0913301B0E066
:10098000AC5CBE4F4C938093330103C0868D816075
:10099000868F828D938D0197F1F7A389B4898C910D
:1009A0009589892B8C93FF91EF91BF91AF919F9186
:1009B0008F917F916F915F914F913F912F910F9008
:1009C0000FBE0F901F9018951F920F920FB60F92A7
:1009D00011242F933F938F939F93AF93BF93809155
:1009E000770190917801A0917901B0917A013091CD
:1009F000760123E0230F2D3720F40196A11DB11DB0
:100A000005C026E8230F0296A11DB11D2093760193
:100A10008093770190937801A0937901B0937A0144
:100A200080917B0190917C01A0917D01B0917E012C
:100A30000196A11DB11D80937B0190937C01A09331
:100A40007D01B0937E01BF91AF919F918F913F91B6
:100A50002F910F900FBE0F901F9018958230910527
:100A600038F0880F991F880F991F05970197F1F7A4
:100A70000895789484B5826084BD84B5816084BD16
:100A800085B5826085BD85B5816085BDEEE6F0E007
:100A9000808181608083E1E8F0E010828081826063
:100AA0008083808181608083E0E8F0E080818160E4
:100AB0008083E1EBF0E0808184608083E0EBF0E014
:100AC000808181608083EAE7F0E0808184608083B8
:100AD0008081826080838081816080838081806862
:100AE00080831092C10008951F93CF93DF93182F36
:100AF000EB0161E00E94FC05209711F460E004C066
:100B0000CF3FD10539F461E0812FDF91CF911F9163
:100B10000C943506E12FF0E0E859FF4FE491E33003
:100B2000F9F048F4E130B9F0E230A1F584B5806223
:100B300084BDC8BD34C0E730E9F0E83019F1E430D5
:100B400049F580918000806280938000D0938B0073
:100B5000C0938A0024C084B5806884BDC7BD1FC00F
:100B600080918000806880938000D0938900C0933A
:100B7000880015C08091B00080688093B000C09359
:100B8000B3000DC08091B00080628093B000C0932C
:100B9000B40005C0C038D1050CF0B5CFAFCFDF91A0
:100BA000CF911F910895833081F028F4813099F01E
:100BB0008230A1F008958730A9F08830B9F08430F0
:100BC000D1F4809180008F7D03C0809180008F7769
:100BD00080938000089584B58F7702C084B58F7D9F
:100BE00084BD08958091B0008F7703C08091B000DC
:100BF0008F7D8093B0000895CF93DF9390E0FC0148
:100C0000E458FF4F2491FC01E057FF4F8491882363
:100C100049F190E0880F991FFC01E854FF4FA5911E
:100C2000B49182559F4FFC01C591D4919FB761113A
:100C300008C0F8948C91209582238C93888182231C
:100C40000AC0623051F4F8948C91322F309583238E
:100C50008C938881822B888304C0F8948C91822B9A
:100C60008C939FBFDF91CF9108950F931F93CF93E4
:100C7000DF931F92CDB7DEB7282F30E0F901E85996
:100C8000FF4F8491F901E458FF4F1491F901E057A7
:100C9000FF4F04910023C9F0882321F069830E944B
:100CA000D3056981E02FF0E0EE0FFF1FE255FF4F03
:100CB000A591B4919FB7F8948C91611103C01095E0
:100CC000812301C0812B8C939FBF0F90DF91CF9127
:100CD0001F910F9108950F931F93762F90E0FC01C1
:100CE000E458FF4F6491FC01E057FF4FE49171110C
:100CF000762FF0E0EE0FFF1FEC55FF4F859194919A
:100D000089019A013F70472F0E948C00611571057F
:100D10008105910531F06F5F7F4F8F4F9F4F9F701F
:100D200003C060E070E0CB011F910F910895FC01BA
:100D3000818D228D90E0805C9F4F821B91098F7383
:100D400099270895FC01918D828D981731F0828D3D
:100D5000E80FF11D858D90E008958FEF9FEF0895C6
:100D6000FC01918D828D981761F0828DDF01A80FB3
:100D7000B11D5D968C91928D9F5F9F73928F90E0D5
:100D800008958FEF9FEF089584E398E0892B49F051
:100D900080E090E0892B29F00E94340881110C94A6
:100DA00000000895FC01848DDF01A80FB11DA35A36
:100DB000BF4F2C91848D90E001968F739927848F7B
:100DC000A689B7892C93A089B1898C9180648C9372
:100DD000938D848D981306C00288F389E02D80815D
:100DE0008F7D80830895CF93DF93EC01888D8823D6
:100DF000C9F0EA89FB89808185FD05C0A889B98988
:100E00008C9186FD0FC00FB607FCF5CF808185FF62
:100E1000F2CFA889B9898C9185FFEDCFCE010E94D0
:100E2000D206E7CFDF91CF910895CF92DF92FF9264
:100E30000F931F93CF93DF931F92CDB7DEB76C0153
:100E400081E0D60158968C9358975B969C915B975E
:100E50005C968C915C97981307C05096ED91FC912D
:100E60005197808185FD2EC0F601038D10E00F5F44
:100E70001F4F0F731127F02EF601848DF81211C049
:100E80000FB607FCF9CFD6015096ED91FC91519722
:100E9000808185FFF1CFC60169830E94D2066981F6
:100EA000EBCF838DE80FF11DE35AFF4F6083D6012E
:100EB0005B960C935B975296ED91FC9153978081D2
:100EC00080620CC0D6015696ED91FC9157976083D5
:100ED0005096ED91FC91519780818064808381E0F0
:100EE00090E00F90DF91CF911F910F91FF90DF90D5
:100EF000CF900895BF92CF92DF92EF92FF92CF935F
:100F0000DF93EC016A017B01B22EE889F98982E066
:100F10008083411581EE580761057105A1F060E0FD
:100F200079E08DE390E0A70196010E94EB09215042
:100F3000310941095109569547953795279521154E
:100F400080E1380798F0E889F989108260E874E850
:100F50008EE190E0A70196010E94EB092150310932
:100F6000410951095695479537952795EC85FD859B
:100F70003083EE85FF852083188EEC89FD89B08251
:100F8000EA89FB89808180618083EA89FB8980818D
:100F900088608083EA89FB89808180688083EA8910
:100FA000FB8980818F7D8083DF91CF91FF90EF90CF
:100FB000DF90CF90BF9008951F920F920FB60F92BF
:100FC00011242F938F939F93EF93FF93E0918F01C1
:100FD000F09190018081E0919501F091960182FD60
:100FE00012C09081809198018F5F8F732091990139
:100FF000821751F0E0919801F0E0E158FE4F958F93
:101000008093980101C08081FF91EF919F918F9112
:101010002F910F900FBE0F901F9018951F920F9257
:101020000FB60F9211242F933F934F935F936F93BB
:101030007F938F939F93AF93BF93EF93FF938FE72C
:1010400091E00E94D206FF91EF91BF91AF919F91E5
:101050008F917F916F915F914F913F912F910F9061
:101060000FBE0F901F9018958FE791E00E94970692
:1010700021E0892B09F420E0822F0895109282014B
:101080001092810188EE93E0A0E0B0E080938301AC
:1010900090938401A0938501B09386018AE091E04A
:1010A0009093800180937F0185EC90E090938C0178
:1010B00080938B0184EC90E090938E0180938D015E
:1010C00080EC90E09093900180938F0181EC90E010
:1010D000909392018093910182EC90E0909394011F
:1010E0008093930186EC90E0909396018093950114
:1010F000109298011092990110929A0110929B01FE
:101100000895CF92DF92EF92FF920F931F93CF93A8
:10111000DF937C016A01EB0100E010E00C151D0576
:1011200071F06991D701ED91FC910190F081E02D72
:10113000C7010995892B19F00F5F1F4FEFCFC80129
:10114000DF91CF911F910F91FF90EF90DF90CF90A3
:10115000089508950E9439050E94A9080E94E90295
:10116000C4ECD6E00E9494012097E1F30E94C406EB
:10117000F9CFA8D008F481E008950CD0DEC0D6D015
:1011800040F0CDD030F021F45F3F19F0BFC05111D5
:1011900008C1C2C0E3D098F39923C9F35523B1F332
:1011A000951B550BBB27AA2762177307840738F0D6
:1011B0009F5F5F4F220F331F441FAA1FA9F333D035
:1011C0000E2E3AF0E0E830D091505040E695001CE9
:1011D000CAF729D0FE2F27D0660F771F881FBB1FA5
:1011E000261737074807AB07B0E809F0BB0B802D7F
:1011F000BF01FF2793585F4F2AF09E3F510568F0CB
:1012000085C0CFC05F3FECF3983EDCF386957795C1
:101210006795B795F7959F5FC9F7880F911D9695CC
:10122000879597F90895E1E0660F771F881FBB1F28
:10123000621773078407BA0720F0621B730B840BD5
:10124000BA0BEE1F88F7E0950895E89409C097FB64
:101250003EF490958095709561957F4F8F4F9F4F8D
:101260009923A9F0F92F96E9BB279395F6958795D1
:1012700077956795B795F111F8CFFAF4BB0F11F494
:1012800060FF1BC06F5F7F4F8F4F9F4F16C088233B
:1012900011F096E911C0772321F09EE8872F762F71
:1012A00005C0662371F096E8862F70E060E02AF0B2
:1012B0009A95660F771F881FDAF7880F969587959E
:1012C00097F90895990F0008550FAA0BE0E8FEEF73
:1012D00016161706E807F907C0F012161306E407FA
:1012E000F50798F0621B730B840B950B39F40A26F3
:1012F00061F0232B242B252B21F408950A2609F4D1
:10130000A140A6958FEF811D811D089597F99F67D4
:1013100080E870E060E008959FEF80EC089500247D
:101320000A941616170618060906089500240A944A
:1013300012161306140605060895092E0394000CD0
:1013400011F4882352F0BB0F40F4BF2B11F460FF5F
:1013500004C06F5F7F4F8F4F9F4F089557FD905888
:10136000440F551F59F05F3F71F04795880F97FB69
:10137000991F61F09F3F79F0879508951216130623
:101380001406551FF2CF4695F1DF08C01616170652
:101390001806991FF1CF8695710561050894089587
:1013A000E894BB2766277727CB0197F9089597FB29
:1013B000072E16F4009407D077FD09D00E940D0A7D
:1013C00007FC05D03EF4909581959F4F0895709548
:1013D00061957F4F0895A1E21A2EAA1BBB1BFD0148
:1013E0000DC0AA1FBB1FEE1FFF1FA217B307E40704
:1013F000F50720F0A21BB30BE40BF50B661F771F5C
:10140000881F991F1A9469F760957095809590953B
:101410009B01AC01BD01CF010895AA1BBB1B51E18B
:1014200007C0AA1FBB1FA617B70710F0A61BB70B54
:10143000881F991F5A95A9F780959095BC01CD01F9
:101440000895EE0FFF1F0590F491E02D0994F89494
:02145000FFCFCC
:1014520000001C02800000000000150781089706AA
:06146200B006A206F3062D
:00000001FF
